:020000020000FC
:0200000020C01E
:100040009EC0399807EE00937A0000E000937B0091
:1000500001E600937C0000E0009364003A9A429A23
:100060003B9A439A219A2998219A2998789420E0DA
:1000700020936E0004E005BD509851985298539813
:10008000549A559A569A579A589A599A5A9A5B9AE4
:100090003091790068EC7BE45C9A5D9A5E9A5F9A95
:1000A0005C980000489B34C0499B36C04A9B38C0CE
:1000B0004B9B3DC05C9A5D980000489B3CC0499BAF
:1000C0003EC04A9B40C04B9B42C05D9A5E98000078
:1000D000489B41C0499B43C04A9B45C04B9B12C0B3
:1000E0005E9A5F980000489B42C0499B44C04A9B6F
:1000F0000AC04B9B0AC05F9A439A429A20E0209321
:100100006E00C6CF43984298C3CF43984298C0CF61
:1001100021E020936E00BCCF21E020936E00B8CF89
:10012000631788F13717B0F1439A429AB1CF21E0B3
:1001300020936E00ADCF21E020936E00A9CF21E087
:1001400020936E00A5CF21E020936E00A1CF21E087
:1001500020936E009DCF21E020936E0099CF21E087
:1001600020936E0095CF21E020936E0091CF21E087
:1001700020936E008DCF21E020936E0089CF199AD5
:10018000142F16BD18954398429A5F9800004B9B18
:1001900008C07ECF4298439A5F9800004B9B06C0F0
:1001A00077CF21E048EB20936E0072CF21E048ED3D
:0601B00020936E006DCFEC
:00000001FF
