:020000020000FC
:0200000020C01E
:100040009FC0399807EE00937A0000E000937B0090
:1000500001E600937C0000E0009364003A9A429A23
:100060003B9A439A219A2998219A2998789420E0DA
:1000700020936E0004E005BD509851985298539813
:10008000549A559A569A579A589A599A5A9A5B9AE4
:100090005091790068EC7BE45C9A5D9A5E9A5F9A75
:1000A0005C980000489B35C0499B37C04A9B39C0CB
:1000B0004B9B3EC05C9A5D980000489B3DC0499BAD
:1000C0003FC04A9B41C04B9B43C05D9A5E98000075
:1000D000489B42C0499B44C04A9B46C04B9B12C0B0
:1000E0005E9A5F980000489B43C0499B45C04A9B6D
:1000F0000BC04B9B0BC05F9A439A429A20E020931F
:100100006E00C6CF4398C4CF4298C2CF439842985E
:10011000BFCF21E020936E00BBCF21E020936E0083
:10012000B7CF651788F15717B0F1439A429AB0CF0D
:1001300021E020936E00ACCF21E020936E00A8CF89
:1001400021E020936E00A4CF21E020936E00A0CF89
:1001500021E020936E009CCF21E020936E0098CF89
:1001600021E020936E0094CF21E020936E0090CF89
:1001700021E020936E008CCF21E020936E0088CF89
:10018000199A142F16BD18954398429A5F9800004B
:100190004B9B08C07DCF4298439A5F9800004B9BD1
:1001A00006C076CF21E048EB20936E0071CF21E0AE
:0801B00048ED20936E006CCFB6
:00000001FF
