:020000020000FC
:0200000020C01E
:10004000D0C03A9A429A3B9A439A399807EE009365
:100050007A0000E000937B0001E600937C0000E062
:10006000009364002098289A509851985298539879
:10007000549A559A569A579A589A599A5A9A5B9AF4
:10008000E8E7F2E0A0E0B1E000E845914D930A9581
:10009000E1F7E8EFF2E0A0E0B2E000E845914D932F
:1000A0000A95E1F7239A249A259A03B000FA1EF4E0
:1000B000A0E0B1E002C0A0E0B2E017E040E8A40F89
:1000C00010F441E0B40F789421E020936E0092E0A8
:1000D00095BD98EB96BD70E0309179002C9A5C9AB2
:1000E0005D9A5E9A5F9A5C980000489B36C0499B77
:1000F00038C04A9B3AC04B9B3CC05C9A5D9800005C
:10010000489B3BC0499B3DC04A9B3FC04B9B41C065
:100110005D9A5E980000489B40C0499B42C04A9B44
:1001200044C04B9B0EC05E9A5F980000489B50C035
:10013000499B52C04A9B09C04B9B0BC05F9A429A95
:10014000CBCF74E00E942801C6CF70E40E94280142
:10015000C2CF77E00E942801BECF74E40E9428013C
:10016000BACF73E40E942801B6CF70E00E94280144
:10017000B2CF72E40E942801AECF75E40E9428013C
:10018000AACF73E00E942801A6CF72E00E94280146
:10019000A2CF71E00E9428019ECF76E40E94280140
:1001A0009ACF76E00E94280196CF7DE10E94280137
:1001B0007DE198EC8BE4931718F0381718F007C01E
:1001C000705102C080E1780F42980E94280183CFCD
:1001D00077E40E9428017FCF71E40E9428017BCF41
:1001E0007ACF189708E05E910E9431010A95D9F7FD
:1001F000D89708E05E910E9431010A95D9F708E08E
:100200002B98011709F42B9A2D9A2D980A95C1F76E
:100210002C9A2FEF000000000000000000002A953B
:10022000C9F72C9848E4A40F10F441E0B40F1A95D4
:1002300071F417E003B000FA1EF4A0E0B1E002C0D0
:10024000A0E0B2E040E8A40F10F441E0B40F18952C
:10025000C0E0D2E0C70F10F471E0D70F74E07883EC
:10026000089565E050FB2B980EF42B9A2D9A2D984B
:1002700056956A95B9F70895001F0000001F000009
:10028000001F0000001F0000001F0000001F0000F2
:10029000000000000000000000000000001F00003F
:1002A00000000000001F000000000000001F000010
:1002B00000000000000000000000001F000000001F
:1002C0000000001F000000000000001F00000000F0
:1002D000000000000000000000000000000000001E
:1002E000000000000000000000000000000000000E
:1002F000000000000000001F001F000000000000C0
:1003000000000000000000000000000000000000ED
:1003100000000000000000000000000000000000DD
:1003200000000000000000000000000000000000CD
:1003300000000000000000000000000000000000BD
:1003400000000000000000000000000000000000AD
:10035000000000000000000000000000000000009D
:10036000000000000000000000000000000000008D
:08037000000000000000000085
:00000001FF
