:020000020000FC
:0200000020C01E
:1000400018C1E1E0F6E073E07083E2E0F6E070E012
:100050007083E3E0F6E075E07083E4E0F6E070E0E2
:10006000708322982A9A3A9A429A3B9A439A3998EC
:1000700007EE00937A0000E000937B0001E6009316
:100080007C0000E0009364002098289A50985198D2
:1000900052985398549A559A569A579A589A599AE8
:1000A0005A9A5B9AEEE2F4E0A0E0B1E000E84591F4
:1000B0004D930A95E1F7EEEAF4E0A0E0B2E000E843
:1000C00045914D930A95E1F7239A249A259A03B016
:1000D00000FA1EF4A0E0B1E002C0A0E0B2E017E038
:1000E00040E8A40F10F441E0B40F789421E020938D
:1000F0006E0092E095BD9FEF96BD70E03091790063
:100100002C9A5C9A5D9A5E9A5F9A5C980000489B74
:1001100054C0499B59C04A9B5EC04B9B63C05C9ACC
:100120005D980000489B65C0499B6AC04A9B6FC0B0
:100130004B9B74C05D9A5E980000489B76C0499BBB
:100140007BC04A9B80C04B9B23C05E9A5F98000097
:10015000489B80C0499B85C04A9B21C04B9B26C0C1
:100160005F9AE0E0F4E07081E0E0F2E0E70F10F485
:1001700071E0F70F70E07083E0E0F5E07081E0E09F
:10018000F2E0E70F10F471E0F70F70E07083B6CF84
:100190007CE10E94FA017CE10E947101AECF78E51A
:1001A0000E94FA0178E50E947101A7CF7FE10E94C9
:1001B000FA017FE10E947101A0CF7CE50E94FA0163
:1001C0007CE50E94710199CF7BE50E94FA017BE5F5
:1001D0000E94710192CF78E10E94FA0178E10E94B9
:1001E00071018BCF7AE50E94FA017AE50E947101D4
:1001F00084CF7DE50E94FA017DE50E9471017DCFEB
:100200007BE10E94FA017BE10E94710176CF7AE1E5
:100210000E94FA017AE10E9471016FCF79E10E9498
:10022000FA0179E10E94710168CF7EE50E94FA012E
:100230007EE50E94710161CF7EE10E94FA017EE1BC
:100240000E9471015ACF7DE10E94FA017DE10E9476
:10025000710153CF7FE50E94FA017FE50E94710191
:100260004CCF79E50E94FA0179E50E94710145CFF2
:1002700044CF0F930FB70F932C9A189708E05E9115
:100280000E940C020A95D9F7D89708E05E910E9467
:100290000C020A95D9F708E02B98011709F42B9A5C
:1002A0002D9A2D980A95C1F72C982C9A2FEF2C98FF
:1002B00048E4A40F10F441E0B40F1A9571F417E06C
:1002C00003B000FA1EF4A0E0B1E002C0A0E0B2E08A
:1002D00040E8A40F10F441E0B40F0F910FBF0F914D
:1002E0001895E0E0F5E070833091790098EC8BE4AC
:1002F000391718F4831780F41DC080E1780FE0E00F
:10030000F3E070830E94FA017081E0E0F4E0708312
:1003100070520E9403020EC07051E0E0F3E070835F
:100320000E94FA017081E0E0F4E0708380E2780FCF
:100330000E94030203B002FA0EF41FC0E0E0F3E0F3
:100340007081E0E0F1E0E70F10F471E0F70F7081E9
:100350008FE1871709F00FC043980E94CC01E2E0BB
:10036000F6E0808191E0890F8083E1E0F6E0908102
:10037000891721F002C00E94DA010895EEE2F5E04B
:10038000C0E0D2E090E8459149930A95E1F703B0C7
:1003900000FA0EF4B2CEF2CFE0E0F4E0708198E023
:1003A000791B7F930E94F1017F91790F790F0E9451
:1003B000F1010895E0E0F4E0708198E0791B7F930B
:1003C0000E94E8017F91790F790F0E94E80108955A
:1003D000C0E0D2E0C70F10F471E0D70F71E178836D
:1003E0000895C0E0D2E0C70F10F471E0D70F7FE1AD
:1003F00078830895C0E0D2E0C70F10F471E0D70F02
:1004000074E078830895C0E0D2E0C70F10F471E083
:10041000D70F70E07883089565E050FB2B980EF4B9
:100420002B9A2D9A2D9856956A95B9F70895001F25
:100430000000001F0000001F0000001F0000001F40
:100440000000001F0000000000000000000000008D
:10045000000000000000000000000000000000009C
:10046000000000000000000000000000000000008C
:10047000001F000000000000001F0000000000003E
:10048000001F00000000000000000000000000004D
:10049000000000000000000000000000000000005C
:1004A000000000000000000000000000001F00002D
:1004B000000000000000000000000000000000003C
:1004C000000000000000000000000000000000002C
:1004D000000000000000000000000000000000001C
:1004E000000000000000000000000000000000000C
:1004F00000000000000000000000000000000000FC
:1005000000000000000000000000000000000000EB
:1005100000000000000000000000000000000000DB
:100520000000000000000000000000000000001FAC
:100530001F1F111F110000111011110411000011D3
:10054000101F11041100001F1F11110415000011CC
:100550001011110404000011101111040400001FF7
:100560001F111F0404000000000000000000000034
:10057000000000000000000000000000000000007B
:10058000000000000000000000000000000000006B
:10059000000000000000000000000000000000005B
:0E05A00000000000000000000000000000004D
:00000001FF
