:020000020000FC
:0200000020C01E
:10004000C8C0399807EE00937A0000E000937B0067
:1000500001E600937C0000E0009364002098289A59
:100060005098519852985398549A559A569A579A2C
:10007000589A599A5A9A5B9AE8E6F2E0A0E0B1E001
:1000800000E845914D930A95E1F7E8EEF2E0A0E033
:10009000B2E000E845914D930A95E1F7239A249A3E
:1000A000259A03B000FA1EF4A0E0B1E002C0A0E07F
:1000B000B2E017E040E8A40F10F441E0B40F7894E8
:1000C00021E020936E0092E095BD98EB96BD70E024
:1000D0002C9A5C9A5D9A5E9A5F9A5C980000489BA5
:1000E00035C0499B37C04A9B39C04B9B3BC05C9A8B
:1000F0005D980000489B3AC0499B3CC04A9B3EC06B
:100100004B9B40C05D9A5E980000489B3FC0499B56
:1001100041C04A9B43C04B9B0DC05E9A5F98000054
:10012000489B4EC0499B50C04A9B08C04B9B0AC08D
:100130005F9ACECF74E00E942001C9CF70E40E9484
:100140002001C5CF77E00E942001C1CF74E40E9456
:100150002001BDCF73E40E942001B9CF70E00E945E
:100160002001B5CF72E40E942001B1CF75E40E9456
:100170002001ADCF73E00E942001A9CF72E00E9460
:100180002001A5CF71E00E942001A1CF76E40E945A
:1001900020019DCF76E00E94200199CF7DE10E9451
:1001A00020013091790098EC8BE4931718F0381700
:1001B00018F005C07EE001C07EE00E94200187CFDC
:1001C00077E40E94200183CF71E40E9420017FCF59
:1001D0007ECF189708E05E910E9429010A95D9F711
:1001E000D89708E05E910E9429010A95D9F708E0A6
:1001F0002B98011709F42B9A2D9A2D980A95C1F77F
:100200002C9A2FEF000000000000000000002A954B
:10021000C9F72C9848E4A40F10F441E0B40F1A95E4
:1002200071F417E003B000FA1EF4A0E0B1E002C0E0
:10023000A0E0B2E040E8A40F10F441E0B40F18953C
:10024000C0E0D2E0C70F10F471E0D70F74E07883FC
:10025000089565E050FB2B980EF42B9A2D9A2D985B
:1002600056956A95B9F70895001F0000001F000019
:10027000001F0000001F0000001F0000001F000002
:10028000000000000000000000000000001F00004F
:1002900000000000001F000000000000001F000020
:1002A00000000000000000000000001F000000002F
:1002B0000000001F000000000000001F0000000000
:1002C000000000000000000000000000000000002E
:1002D000000000000000000000000000000000001E
:1002E000000000000000001F001F000000000000D0
:1002F00000000000000000000000000000000000FE
:1003000000000000000000000000000000000000ED
:1003100000000000000000000000000000000000DD
:1003200000000000000000000000000000000000CD
:1003300000000000000000000000000000000000BD
:1003400000000000000000000000000000000000AD
:10035000000000000000000000000000000000009D
:08036000000000000000000095
:00000001FF
