:020000020000FC
:0200000020C01E
:1000400096C02098289A5098519852985398549A4C
:10005000559A569A579A589A599A5A9A5B9AE2EF31
:10006000F1E0A0E0B1E000E845914D930A95E1F799
:10007000E2E7F2E0A0E0B2E000E845914D930A9596
:10008000E1F7239A249A259A03B000FA1EF4A0E01F
:10009000B1E002C0A0E0B2E017E040E8A40F10F425
:1000A00041E0B40F789421E020936E0093E095BD79
:1000B00098EB96BD70E080E02C9A5C9A5D9A5E9A0F
:1000C0005F9A5C980000489B2FC0499B2FC04A9BB9
:1000D0002FC04B9B2FC05C9A5D980000489B2CC0A2
:1000E000499B2CC04A9B2CC04B9B2CC05D9A5E98B0
:1000F0000000489B29C0499B29C04A9B29C04B9BB3
:100100000DC05E9A5F980000489B24C0499B24C0A4
:100110004A9B06C04B9B06C05F9ACECF74E01EC0C0
:1001200078E01CC077E01AC07CE018C07BE016C005
:1001300070E014C07AE012C07DE010C073E00EC021
:1001400072E00CC071E00AC07EE008C076E006C034
:1001500075E004C07FE002C079E000C0A70F10F492
:1001600071E0B70F74E07C93A0E0B2E0A3CF1897E2
:1001700008E05E910E94EE000A95D9F7D89708E052
:100180005E910E94EE000A95D9F708E02B980117BE
:1001900009F42B9A2D9A2D980A95C1F72C9A2FEFD6
:1001A000000000000000000000002A95C9F72C980C
:1001B00048E4A40F10F441E0B40F1A9571F417E06D
:1001C00003B000FA1EF4A0E0B1E002C0A0E0B2E08B
:1001D00040E8A40F10F441E0B40F189565E050FB1F
:1001E0002B980EF42B9A2D9A2D9856956A95B9F75F
:1001F0000895001F0000001F0000001F0000001FE6
:100200000000001F0000001F0000000000000000B0
:10021000000000000000001F000000000000001FA0
:10022000000000000000001F0000000000000000AF
:1002300000000000001F000000000000001F000080
:1002400000000000001F000000000000000000008F
:10025000000000000000000000000000000000009E
:10026000000000000000000000000000000000008E
:10027000001F001F00000000000000000000000040
:10028000000000000000000000000000000000006E
:10029000000000000000000000000000000000005E
:1002A000000000000000000000000000000000004E
:1002B000000000000000000000000000000000003E
:1002C000000000000000000000000000000000002E
:1002D000000000000000000000000000000000001E
:1002E000000000000000000000000000000000000E
:0202F00000000C
:00000001FF
