:020000020000FC
:0200000020C01E
:1000400005C122982A9A3A9A429A3B9A439A399839
:1000500007EE00937A0000E000937B0001E6009336
:100060007C0000E0009364002098289A50985198F2
:1000700052985398549A559A569A579A589A599A08
:100080005A9A5B9AE6EFF2E0A0E0B1E000E8459111
:100090004D930A95E1F7E6E7F3E0A0E0B2E000E86F
:1000A00045914D930A95E1F7239A249A259A03B036
:1000B00000FA1EF4A0E0B1E002C0A0E0B2E017E058
:1000C00040E8A40F10F441E0B40F789421E02093AD
:1000D0006E0092E095BD9FEF96BD70E03091790083
:1000E0002C9A5C9A5D9A5E9A5F9A5C980000489B95
:1000F00040C0499B42C04A9B44C04B9B46C05C9A4F
:100100005D980000489B45C0499B47C04A9B49C039
:100110004B9B4BC05D9A5E980000489B4DC0499B2D
:100120004FC04A9B51C04B9B18C05E9A5F9800001D
:10013000489B83C0499B85C04A9B13C04B9B15C0FD
:100140005F9AE0E0F4E07081E0E0F2E0E70F10F4A5
:1001500071E0F70F70E07083C1CF74E00E945E0120
:10016000BCCF70E40E945E01B8CF77E00E945E01D0
:10017000B4CF74E40E945E01B0CF73E40E945E01CC
:10018000ACCF70E00E945E01A8CF72E40E945E01D5
:10019000A4CF75E40E945E01A0CF73E00E945E01CF
:1001A0009CCF72E00E945E0198CF71E0E0E0F4E045
:1001B00070830E945E0191CF76E40E945E018DCF34
:1001C00076E00E945E0189CF7DE10E945E017DE1C3
:1001D0003091790098EC8BE4391718F4831768F4A0
:1001E00017C080E1780FE0E0F3E070830E945E01C9
:1001F000708170520E9467010BC07051E0E0F3E023
:1002000070830E945E01708180E2780F0E94670116
:1002100003B002FA0EF40DC07081E0E0F1E0E70FE8
:1002200010F471E0F70F70818FE1871709F001C0BA
:1002300043987DE10E94670150CF77E40E945E0100
:100240004CCF71E40E945E0148CF47CF0F930FB7A8
:100250000F932C9A189708E05E910E9470010A95FE
:10026000D9F7D89708E05E910E9470010A95D9F7F6
:1002700008E02B98011709F42B9A2D9A2D980A95CE
:10028000C1F72C982C9A2FEF2C9848E4A40F10F467
:1002900041E0B40F1A9571F417E003B000FA1EF4B0
:1002A000A0E0B1E002C0A0E0B2E040E8A40F10F48A
:1002B00041E0B40F0F910FBF0F911895C0E0D2E04D
:1002C000C70F10F471E0D70F74E078830895C0E091
:1002D000D2E0C70F10F471E0D70F70E07883089573
:1002E00065E050FB2B980EF42B9A2D9A2D9856957D
:1002F0006A95B9F70895001F0000001F0000001F55
:100300000000001F0000001F0000001F0000000090
:1003100000000000000000000000000000000000DD
:1003200000000000000000000000000000000000CD
:100330000000000000000000001F0000000000009E
:10034000001F000000000000001F0000000000006F
:10035000000000000000000000000000000000009D
:10036000000000000000000000000000000000008D
:1003700000000000001F001F00000000000000003F
:10038000000000000000000000000000000000006D
:10039000000000000000000000000000000000005D
:1003A000000000000000000000000000000000004D
:1003B000000000000000000000001F00001F0000FF
:1003C000000000000000000000000000000000002D
:1003D000000000000000000000000000000000001D
:1003E000000000000000000000000000000000000D
:0603F00000000000000007
:00000001FF
