:020000020000FC
:0200000020C01E
:1000400008C122982A9A3A9A429A3B9A439A399836
:1000500007EE00937A0000E000937B0001E6009336
:100060007C0000E0009364002098289A50985198F2
:1000700052985398549A559A569A579A589A599A08
:100080005A9A5B9AECEDF3E0A0E0B1E000E845910C
:100090004D930A95E1F7ECE5F4E0A0E0B2E000E86A
:1000A00045914D930A95E1F7239A249A259A03B036
:1000B00000FA1EF4A0E0B1E002C0A0E0B2E017E058
:1000C00040E8A40F10F441E0B40F789421E02093AD
:1000D0006E0092E095BD9FEF96BD70E03091790083
:1000E0002C9A5C9A5D9A5E9A5F9A5C980000489B95
:1000F00054C0499B59C04A9B5EC04B9B63C05C9AED
:100100005D980000489B65C0499B6AC04A9B6FC0D0
:100110004B9B74C05D9A5E980000489B76C0499BDB
:100120007BC04A9B80C04B9B23C05E9A5F980000B7
:10013000489B80C0499B85C04A9B21C04B9B26C0E1
:100140005F9AE0E0F4E07081E0E0F2E0E70F10F4A5
:1001500071E0F70F70E07083E0E0F5E07081E0E0BF
:10016000F2E0E70F10F471E0F70F70E07083B6CFA4
:100170007CE10E94D1017CE10E946101AECF78E573
:100180000E94D10178E50E946101A7CF7FE10E9422
:10019000D1017FE10E946101A0CF7CE50E94D101E5
:1001A0007CE50E94610199CF7BE50E94D1017BE54E
:1001B0000E94610192CF78E10E94D10178E10E9412
:1001C00061018BCF7AE50E94D1017AE50E9461013D
:1001D00084CF7DE50E94D1017DE50E9461017DCF44
:1001E0007BE10E94D1017BE10E94610176CF7AE13F
:1001F0000E94D1017AE10E9461016FCF79E10E94F2
:10020000D10179E10E94610168CF7EE50E94D101B0
:100210007EE50E94610161CF7EE10E94D1017EE115
:100220000E9461015ACF7DE10E94D1017DE10E94CF
:10023000610153CF7FE50E94D1017FE50E946101FA
:100240004CCF79E50E94D10179E50E94610145CF4B
:1002500044CF0F930FB70F932C9A189708E05E9135
:100260000E94E3010A95D9F7D89708E05E910E94B1
:10027000E3010A95D9F708E02B98011709F42B9AA6
:100280002D9A2D980A95C1F72C982C9A2FEF2C981F
:1002900048E4A40F10F441E0B40F1A9571F417E08C
:1002A00003B000FA1EF4A0E0B1E002C0A0E0B2E0AA
:1002B00040E8A40F10F441E0B40F0F910FBF0F916D
:1002C0001895E0E0F5E070833091790098EC8BE4CC
:1002D000391718F4831780F41DC080E1780FE0E02F
:1002E000F3E070830E94D1017081E0E0F4E070835C
:1002F00070520E94DA010EC07051E0E0F3E07083AA
:100300000E94D1017081E0E0F4E0708380E2780F18
:100310000E94DA0103B002FA0EF414C0E0E0F3E048
:100320007081E0E0F1E0E70F10F471E0F70F708109
:100330008FE1871709F004C043980E94A30102C00F
:100340000E94B1010895E0E0F4E0708198E0791B2B
:100350007F930E94C8017F91790F790F0E94C80195
:100360000895E0E0F4E0708198E0791B7F930E94AB
:10037000BF017F91790F790F0E94BF010895C0E0FE
:10038000D2E0C70F10F471E0D70F71E178830895C0
:10039000C0E0D2E0C70F10F471E0D70F7FE178839F
:1003A0000895C0E0D2E0C70F10F471E0D70F74E0F9
:1003B00078830895C0E0D2E0C70F10F471E0D70F42
:1003C00070E07883089565E050FB2B980EF42B9A2B
:1003D0002D9A2D9856956A95B9F70895001F00003B
:1003E000001F0000001F0000001F0000001F000091
:1003F000001F0000000000000000000000000000DE
:1004000000000000000000000000000000000000EC
:100410000000000000000000000000000000001FBD
:10042000000000000000001F000000000000001F8E
:1004300000000000000000000000000000000000BC
:1004400000000000000000000000000000000000AC
:1004500000000000000000000000001F000000007D
:10046000000000000000000000000000000000008C
:10047000000000000000000000000000000000007C
:10048000000000000000000000000000000000006C
:10049000000000000000000000000000000000005C
:1004A000000000000000000000000000000000004C
:1004B000000000000000000000000000000000003C
:1004C000000000000000000000000000000000002C
:0C04D00000000000000000000000000020
:00000001FF
