:020000020000FC
:0200000020C01E
:100040001DC0789421E020936E0003E005BD18EBFD
:1000500016BDE4EFF0E0A0E0B1E000E845914D937B
:100060000A95E1F7239A249A259A17E0A0E0B1E0D7
:1000700040E8A40F10F441E0B40FFFCF189708E058
:100080005E910E946F000A95D9F7D89708E05E91BB
:100090000E946F000A95D9F708E02B98011709F420
:1000A0002B9A2D9A2D980A95C1F72C9A2FEF0000C4
:1000B00000000000000000002A95C9F72C9848E4D1
:1000C000A40F10F441E0B40F1A9541F417E0A0E03A
:1000D000B1E040E8A40F10F441E0B40F189565E0DA
:1000E00050FB2B980EF42B9A2D9A2D9856956A95C5
:1000F000B9F70895001F0000001F0000001F000056
:10010000001F0000001F0000001F00000000000092
:100110000000000000000000001F000000000000C0
:10012000001F000000000000001F00000000000091
:10013000000000000000001F000000000000001F81
:10014000000000000000001F000000000000000090
:10015000000000000000000000000000000000009F
:10016000000000000000000000000000000000008F
:04017000000000008B
:00000001FF
