:020000020000FC
:0200000020C01E
:0200240048C1D1
:1000400055C1E1E0F6E073E07083E2E0F6E070E0D5
:100050007083E3E0F6E070E07083E4E0F6E075E0E2
:100060007083E5E0F6E070E07083E6E0F6E070E0D3
:100070007083E0E0F7E070E0708322982A9A3A9A61
:10008000429A3B9A439A399807EE00937A0000E02F
:1000900000937B0001E600937C0000E00093640085
:1000A0002098289A5098519852985398549A559A53
:1000B000569A579A589A599A5A9A5B9AEAE9F5E0E9
:1000C000A0E0B1E000E845914D930A95E1F7EAE13F
:1000D000F6E0A0E0B2E000E845914D930A95E1F723
:1000E000239A249A259A03B000FA1EF4A0E0B1E006
:1000F00002C0A0E0B2E017E040E8A40F10F441E035
:10010000B40F219A2998789404E00093B10021E07B
:1001100020936E0092E095BD9FEF96BD70E0309108
:1001200079002C9A5C9A5D9A5E9A5F9A5C980000BE
:10013000489B65C0499B6AC04A9B6FC04B9B74C07B
:100140005C9A5D980000489B76C0499B7BC04A9BA7
:1001500080C04B9B85C05D9A5E980000489B87C01D
:10016000499B8CC04A9B91C04B9B34C05E9A5F9860
:100170000000489B91C0499B96C04A9B32C04B9B54
:1001800037C05F9AE0E0F7E0708190E0791759F4AA
:10019000E0E0F4E07081E0E0F2E0E70F10F471E0FD
:1001A000F70F70E07083E0E0F5E07081E0E0F2E0EE
:1001B000E70F10F471E0F70F70E07083E3E0F6E012
:1001C00090E09083E6E0F6E090E0908320E02093DA
:1001D0007000A5CF7CE10E94B0027CE10E94B701D3
:1001E0009DCF78E50E94B00278E50E94B70196CFD6
:1001F0007FE10E94B0027FE10E94B7018FCF7CE5D2
:100200000E94B0027CE50E94B70188CF7BE50E9486
:10021000B0027BE50E94B70181CF78E10E94B00275
:1002200078E10E94B7017ACF7AE50E94B0027AE5C0
:100230000E94B70173CF7DE50E94B0027DE50E9468
:10024000B7016CCF7BE10E94B0027BE10E94B70155
:1002500065CF7AE10E94B0027AE10E94B7015ECFD9
:1002600079E10E94B00279E10E94B70157CF7EE5A3
:100270000E94B0027EE50E94B70150CF7EE10E944D
:10028000B0027EE10E94B70149CF7DE10E94B00239
:100290007DE10E94B70142CF7FE50E94B0027FE579
:1002A0000E94B7013BCF79E50E94B00279E50E9438
:1002B000B70134CF33CFEF93FF937F939F939FB7D3
:1002C0009F93E0E0F8E0708191E0199A791721F4AA
:1002D0007AEA7093B20003C07FE07093B2009F91FE
:1002E0009FBF9F917F91FF91EF9118950F930FB74B
:1002F0000F932F932C9A189708E05E910E94C202E8
:100300000A95D9F7D89708E05E910E94C2020A9533
:10031000D9F708E02B98011709F42B9A2D9A2D98FC
:100320000A95C1F72C982C9A2C982FE50000000014
:1003300000002A95D9F748E4A40F10F441E0B40F67
:100340001A9571F417E003B000FA1EF4A0E0B1E0D2
:1003500002C0A0E0B2E040E8A40F10F441E0B40F06
:1003600040E046BD2F910F910FBF0F911895E0E02F
:10037000F5E070833091790098EC8BE4391718F42C
:100380008317A0F425C0E0E0F7E090E0908380E1DF
:10039000780FE0E0F3E070830E94B0027081E0E04B
:1003A000F4E0708370520E94B90212C0E0E0F7E0FE
:1003B00090E090837051E0E0F3E070830E94B0021F
:1003C0007081E0E0F4E0708380E2780F0E94B9026F
:1003D00003B002FA0EF453C042984398E0E0F3E011
:1003E0007081E0E0F1E0E70F429A439A10F471E087
:1003F000F70F70818FE1871709F023C021E0209368
:100400007000E0E0F8E021E020830E947E02E3E05B
:10041000F6E0808190E0891791F5E0E0F7E091E067
:100420009083E3E0F6E091E09083E2E0F6E0808103
:1004300091E0890F8083E1E0F6E09081891701F176
:100440001EC021E020937000E0E0F8E022E020836D
:100450000E949002E6E0F6E0808190E0891779F44E
:10046000E6E0F6E091E09083E5E0F6E0808191E05F
:10047000890F8083E4E0F6E09081891701F1089507
:10048000EAE9F6E0C0E0D2E090E8459149939A9518
:10049000E1F703B000FA8EF5EAE1F6E0C0E0D2E061
:1004A00090E8459149939A95E1F7E2E0F6E090E013
:1004B0009083E5E0F6E090E0908330CEEACFEAE189
:1004C000F7E0C0E0D2E090E8459149939A95E1F7D2
:1004D00003B000FA96F4EAE1F6E0C0E0D2E090E87A
:1004E000459149939A95E1F7E5E0F6E090E0908335
:1004F000E2E0F6E090E0908311CEEACFE0E0F4E0B5
:10050000708198E0791B7F930E94A7027F91790FF9
:100510007F930E94A7027F91790F0E94A7020895FE
:10052000E0E0F4E0708198E0791B7F930E949E02E6
:100530007F91790F790F0E949E020895C0E0D2E06A
:10054000C70F10F471E0D70F71E178830895C0E010
:10055000D2E0C70F10F471E0D70F7FE178830895E0
:10056000C0E0D2E0C70F10F471E0D70F74E07883D9
:100570000895C0E0D2E0C70F10F471E0D70F70E02B
:100580007883089565E050FB2B980EF42B9A2D9AF2
:100590002D9856956A95B9F70895001F0000001F21
:1005A0000000001F0000001F0000001F0000001FCF
:1005B000000000000000000000000000000000003B
:1005C000000000000000000000000000000000002B
:1005D000000000000000000000000000001F0000FC
:1005E00000000000001F000000000000001F0000CD
:1005F00000000000000000000000000000000000FB
:1006000000000000000000000000000000000000EA
:100610000000000000000000001F000000000000BB
:1006200000000000000000000000000000000000CA
:1006300000000000000000000000000000000000BA
:1006400000000000000000000000000000000000AA
:10065000000000000000000000000000000000009A
:10066000000000000000000000000000000000008A
:10067000000000000000000000000000000000007A
:10068000000000000000000000000000000000006A
:1006900000000000000000000000001E1F1F111FCE
:1006A000110000111011110411000012101F11048B
:1006B0001100001E1F1111041F000012101111045F
:1006C00004000011101111040400001E1F111F046A
:1006D00004000000000000000000001F1F000011C7
:1006E0001F00001110000011100000111F00001168
:1006F000100000111000001F100000111000001069
:1007000010000011100000101000001F1000001059
:100710001F0000000000000000001F1F1B1E0F1123
:100720001E1E1011151009111012101F151009119D
:10073000101E1011111E09111E1816111110091189
:10074000101412111110090A10121E11111E0F049B
:100750001E11000000000000000000031E00000049
:1007600000000004011F1F1F1E0000040100000400
:10077000010000071F0000071F0000040100000423
:1007800001000004011F1F1F1E0000031E000000C7
:02079000000067
:00000001FF
