:020000020000FC
:0200000020C01E
:1000400028C1E1E0F6E073E07083E2E0F6E070E002
:100050007083E3E0F6E070E07083E4E0F6E075E0E2
:100060007083E5E0F6E070E07083E6E0F6E070E0D3
:10007000708322982A9A3A9A429A3B9A439A3998DC
:1000800007EE00937A0000E000937B0001E6009306
:100090007C0000E0009364002098289A50985198C2
:1000A00052985398549A559A569A579A589A599AD8
:1000B0005A9A5B9AE6EAF4E0A0E0B1E000E84591E4
:1000C0004D930A95E1F7E6E2F5E0A0E0B2E000E842
:1000D00045914D930A95E1F7239A249A259A03B006
:1000E00000FA1EF4A0E0B1E002C0A0E0B2E017E028
:1000F00040E8A40F10F441E0B40F789421E020937D
:100100006E0092E095BD9FEF96BD70E03091790052
:100110002C9A5C9A5D9A5E9A5F9A5C980000489B64
:100120005CC0499B61C04A9B66C04B9B6BC05C9A9C
:100130005D980000489B6DC0499B72C04A9B77C088
:100140004B9B7CC05D9A5E980000489B7EC0499B9B
:1001500083C04A9B88C04B9B2BC05E9A5F9800006F
:10016000489B88C0499B8DC04A9B29C04B9B2EC091
:100170005F9AE0E0F4E07081E0E0F2E0E70F10F475
:1001800071E0F70F70E07083E0E0F5E07081E0E08F
:10019000F2E0E70F10F471E0F70F70E07083E3E036
:1001A000F6E090E09083E6E0F6E090E09083AECF5A
:1001B0007CE10E9436027CE10E948101A6CF78E5B5
:1001C0000E94360278E50E9481019FCF7FE10E9464
:1001D00036027FE10E94810198CF7CE50E943602C1
:1001E0007CE50E94810191CF7BE50E9436027BE590
:1001F0000E9481018ACF78E10E94360278E10E9454
:10020000810183CF7AE50E9436027AE50E9481015E
:100210007CCF7DE50E9436027DE50E94810175CF8D
:100220007BE10E9436027BE10E9481016ECF7AE180
:100230000E9436027AE10E94810167CF79E10E9433
:10024000360279E10E94810160CF7EE50E9436028C
:100250007EE50E94810159CF7EE10E9436027EE157
:100260000E94810152CF7DE10E9436027DE10E9411
:1002700081014BCF7FE50E9436027FE50E9481011C
:1002800044CF79E50E94360279E50E9481013DCF95
:100290003CCF0F930FB70F932C9A189708E05E91FD
:1002A0000E9448020A95D9F7D89708E05E910E940B
:1002B00048020A95D9F708E02B98011709F42B9A00
:1002C0002D9A2D980A95C1F72C982C9A2FEF2C98DF
:1002D00048E4A40F10F441E0B40F1A9571F417E04C
:1002E00003B000FA1EF4A0E0B1E002C0A0E0B2E06A
:1002F00040E8A40F10F441E0B40F0F910FBF0F912D
:100300001895E0E0F5E070833091790098EC8BE48B
:10031000391718F4831780F41DC080E1780FE0E0EE
:10032000F3E070830E9436027081E0E0F4E07083B5
:1003300070520E943F020EC07051E0E0F3E0708303
:100340000E9436027081E0E0F4E0708380E2780F72
:100350000E943F0203B002FA0EF43DC0E0E0F3E079
:100360007081E0E0F1E0E70F10F471E0F70F7081C9
:100370008FE1871709F018C00E940802E3E0F6E059
:10038000808190E0891739F5E3E0F6E091E0908311
:10039000E2E0F6E0808191E0890F8083E1E0F6E021
:1003A00090818917C9F017C00E941602E6E0F6E0B6
:1003B000808190E0891779F4E6E0F6E091E090839F
:1003C000E5E0F6E0808191E0890F8083E4E0F6E0EB
:1003D0009081891779F00895E6EAF5E0C0E0D2E06F
:1003E00090E8459149930A95E1F703B000FA7EF44D
:1003F0008CCEFBCFE6E2F6E0C0E0D2E090E845919B
:1004000049930A95E1F703B000FA0EF47ECEFBCFD4
:10041000E0E0F4E0708198E0791B7F930E942D0268
:100420007F91790F790F0E942D020895E0E0F4E0AA
:10043000708198E0791B7F930E9424027F91790F4D
:10044000790F0E9424020895C0E0D2E0C70F10F493
:1004500071E0D70F71E178830895C0E0D2E0C70F53
:1004600010F471E0D70F7FE178830895C0E0D2E007
:10047000C70F10F471E0D70F74E078830895C0E0DF
:10048000D2E0C70F10F471E0D70F70E078830895C1
:1004900065E050FB2B980EF42B9A2D9A2D985695CB
:1004A0006A95B9F70895001F0000001F0000001FA3
:1004B0000000001F0000001F0000001F00000000DF
:1004C000000000000000000000000000000000002C
:1004D000000000000000000000000000000000001C
:1004E0000000000000000000001F000000000000ED
:1004F000001F000000000000001F000000000000BE
:1005000000000000000000000000000000000000EB
:1005100000000000000000000000000000000000DB
:1005200000000000001F00000000000000000000AC
:1005300000000000000000000000000000000000BB
:1005400000000000000000000000000000000000AB
:10055000000000000000000000000000000000009B
:10056000000000000000000000000000000000008B
:10057000000000000000000000000000000000007B
:10058000000000000000000000000000000000006B
:10059000000000000000000000000000000000005B
:1005A000000000000000001E1F1F111F110000119D
:1005B0001011110411000012101F11041100001E6F
:1005C0001F1111041F00001210111104040000116A
:1005D000101111040400001E1F111F04040000006C
:1005E000000000000000001F1F0000111F0000118C
:1005F00010000011100000111F0000111000001168
:100600001000001F10000011100000101000001159
:10061000100000101000001F100000101F0000004C
:100620000000000000001F1F1B1E0F111E1E1011D6
:10063000151009111012101F15100911101E10119C
:10064000111E09111E181611111009111014121182
:100650001110090A10121E11111E0F041E110000A4
:1006600000000000000000031E0000000000000465
:10067000011F1F1F1E0000040100000401000007ED
:100680001F0000071F000004010000040100000417
:0E069000011F1F1F1E0000031E0000000000BF
:00000001FF
