:020000020000FC
:0200000020C01E
:0200240048C1D1
:1000400047C1E1E0F6E073E07083E2E0F6E070E0E3
:100050007083E3E0F6E070E07083E4E0F6E075E0E2
:100060007083E5E0F6E070E07083E6E0F6E070E0D3
:100070007083E0E0F7E070E0708322982A9A3A9A61
:10008000429A3B9A439A399807EE00937A0000E02F
:1000900000937B0001E600937C0000E00093640085
:1000A0002098289A5098519852985398549A559A53
:1000B000569A579A589A599A5A9A5B9AE2E7F5E0F3
:1000C000A0E0B1E000E845914D930A95E1F7E2EF39
:1000D000F5E0A0E0B2E000E845914D930A95E1F724
:1000E000239A249A259A03B000FA1EF4A0E0B1E006
:1000F00002C0A0E0B2E017E040E8A40F10F441E035
:10010000B40F219A2998789404E00093B10021E07B
:1001100020936E0092E095BD9FEF96BD70E0309108
:1001200079002C9A5C9A5D9A5E9A5F9A5C980000BE
:10013000489B65C0499B6AC04A9B6FC04B9B74C07B
:100140005C9A5D980000489B76C0499B7BC04A9BA7
:1001500080C04B9B85C05D9A5E980000489B87C01D
:10016000499B8CC04A9B91C04B9B34C05E9A5F9860
:100170000000489B91C0499B96C04A9B32C04B9B54
:1001800037C05F9AE0E0F7E0708190E0791759F4AA
:10019000E0E0F4E07081E0E0F2E0E70F10F471E0FD
:1001A000F70F70E07083E0E0F5E07081E0E0F2E0EE
:1001B000E70F10F471E0F70F70E07083E3E0F6E012
:1001C00090E09083E6E0F6E090E0908320E02093DA
:1001D0007000A5CF7CE10E949C027CE10E94A901F5
:1001E0009DCF78E50E949C0278E50E94A90196CFF8
:1001F0007FE10E949C027FE10E94A9018FCF7CE5F4
:100200000E949C027CE50E94A90188CF7BE50E94A8
:100210009C027BE50E94A90181CF78E10E949C02AB
:1002200078E10E94A9017ACF7AE50E949C027AE5E2
:100230000E94A90173CF7DE50E949C027DE50E948A
:10024000A9016CCF7BE10E949C027BE10E94A90185
:1002500065CF7AE10E949C027AE10E94A9015ECFFB
:1002600079E10E949C0279E10E94A90157CF7EE5C5
:100270000E949C027EE50E94A90150CF7EE10E946F
:100280009C027EE10E94A90149CF7DE10E949C026F
:100290007DE10E94A90142CF7FE50E949C027FE59B
:1002A0000E94A9013BCF79E50E949C0279E50E945A
:1002B000A90134CF33CF7F939F939FB79F93199A10
:1002C0007AE07093B2009F919FBF9F917F911895A4
:1002D0000F930FB70F932F932C9A189708E05E9106
:1002E0000E94AE020A95D9F7D89708E05E910E9465
:1002F000AE020A95D9F708E02B98011709F42B9A5A
:100300002D9A2D980A95C1F72C982C9A2C982FE5A8
:100310000000000000002A95D9F748E4A40F10F46B
:1003200041E0B40F1A9571F417E003B000FA1EF41F
:10033000A0E0B1E002C0A0E0B2E040E8A40F10F4F9
:1003400041E0B40F40E046BD2F910F910FBF0F91D8
:100350001895E0E0F5E070833091790098EC8BE43B
:10036000391718F48317A0F425C0E0E0F7E090E017
:10037000908380E1780FE0E0F3E070830E949C02BC
:100380007081E0E0F4E0708370520E94A50212C018
:10039000E0E0F7E090E090837051E0E0F3E07083FC
:1003A0000E949C027081E0E0F4E0708380E2780FAC
:1003B0000E94A50203B002FA0EF44BC04298439883
:1003C000E0E0F3E07081E0E0F1E0E70F429A439A69
:1003D00010F471E0F70F70818FE1871709F01FC0EB
:1003E00021E0209370000E946A02E3E0F6E0808141
:1003F00090E0891771F5E0E0F7E091E09083E3E0A9
:10040000F6E091E09083E2E0F6E0808191E0890FF0
:100410008083E1E0F6E090818917E1F01AC021E0E5
:10042000209370000E947C02E6E0F6E0808190E07C
:10043000891779F4E6E0F6E091E09083E5E0F6E0F4
:10044000808191E0890F8083E4E0F6E09081891754
:1004500011F10895F894E2E7F6E0C0E0D2E090E808
:10046000459149930A95E1F7789403B000FA8EF527
:10047000E2EFF5E0C0E0D2E090E8459149930A95BB
:10048000E1F7E2E0F6E090E09083E5E0F6E090E06E
:10049000908344CEEACFE2EFF6E0C0E0D2E090E80D
:1004A000459149930A95E1F703B000FA96F4E2EF1B
:1004B000F5E0C0E0D2E090E8459149930A95E1F774
:1004C000E5E0F6E090E09083E2E0F6E090E09083F3
:1004D00025CEEACFE0E0F4E0708198E0791B7F93CD
:1004E0000E9493027F91790F7F930E9493027F91E4
:1004F000790F0E9493020895E0E0F4E0708198E0A3
:10050000791B7F930E948A027F91790F790F0E9455
:100510008A020895C0E0D2E0C70F10F471E0D70F4F
:1005200071E178830895C0E0D2E0C70F10F471E064
:10053000D70F7FE178830895C0E0D2E0C70F10F4B1
:1005400071E0D70F74E078830895C0E0D2E0C70F60
:1005500010F471E0D70F70E07883089565E050FBE8
:100560002B980EF42B9A2D9A2D9856956A95B9F7DB
:100570000895001F0000001F0000001F0000001F62
:100580000000001F0000001F00000000000000002D
:10059000000000000000000000000000000000005B
:1005A000000000000000000000000000000000004B
:1005B00000000000001F000000000000001F0000FD
:1005C00000000000001F000000000000000000000C
:1005D000000000000000000000000000000000001B
:1005E000000000000000000000000000000000000B
:1005F000001F0000000000000000000000000000DC
:1006000000000000000000000000000000000000EA
:1006100000000000000000000000000000000000DA
:1006200000000000000000000000000000000000CA
:1006300000000000000000000000000000000000BA
:1006400000000000000000000000000000000000AA
:10065000000000000000000000000000000000009A
:10066000000000000000000000000000000000008A
:100670000000001E1F1F111F110000111011110496
:1006800011000012101F11041100001E1F1111048F
:100690001F000012101111040400001110111104A8
:1006A0000400001E1F111F040400000000000000D1
:1006B0000000001F1F0000111F000011100000119A
:1006C000100000111F000011100000111000001F89
:1006D0001000001110000010100000111000001098
:1006E0001000001F100000101F000000000000009C
:1006F00000001F1F1B1E0F111E1E101115100911C7
:100700001012101F15100911101E1011111E0911C1
:100710001E18161111100911101412111110090AC6
:1007200010121E11111E0F041E1100000000000007
:10073000000000031E00000000000004011F1F1F36
:100740001E00000401000004010000071F00000754
:100750001F0000040100000401000004011F1F1F0E
:0A0760001E0000031E000000000050
:00000001FF
