:020000020000FC
:0200000020C01E
:0200240054C1C5
:1000400061C1E1E0F6E073E07083E2E0F6E070E0C9
:100050007083E3E0F6E070E07083E4E0F6E075E0E2
:100060007083E5E0F6E070E07083E6E0F6E070E0D3
:100070007083E0E0F7E070E0708322982A9A3A9A61
:10008000429A3B9A439A399807EE00937A0000E02F
:1000900000937B0001E600937C0000E00093640085
:1000A0002098289A5098519852985398549A559A53
:1000B000569A579A589A599A5A9A5B9AE0E5F6E0F6
:1000C000A0E0B1E000E845914D930A95E1F7E0ED3D
:1000D000F6E0A0E0B2E000E845914D930A95E1F723
:1000E000239A249A259A03B000FA1EF4A0E0B1E006
:1000F00002C0A0E0B2E017E040E8A40F10F441E035
:10010000B40F219A2998789404E00093B10021E07B
:1001100020936E0092E095BD9FEF96BD70E0309108
:1001200079002C9A5C9A5D9A5E9A5F9A5C980000BE
:10013000489B71C0499B76C04A9B7BC04B9B80C04B
:100140005C9A5D980000489B82C0499B87C04A9B8F
:100150008CC04B9B91C05D9A5E980000489B93C0F9
:10016000499B98C04A9B9DC04B9B40C05E9A5F983C
:100170000000489B9DC0499BA2C04A9B3EC04B9B30
:1001800043C05F9AE0E0F7E0708190E0791789F46E
:10019000E0E0F4E0708103B000FA1EF4E0E0F1E08A
:1001A00002C0E0E0F2E0E70F10F471E0F70F70E05A
:1001B0007083E0E0F5E0708103B000FA1EF4E0E047
:1001C000F1E002C0E0E0F2E0E70F10F471E0F70FB9
:1001D00070E07083E3E0F6E090E09083E6E0F6E024
:1001E00090E0908320E02093700099CF7CE10E9402
:1001F000FF027CE10E94C30191CF78E50E94FF02DB
:1002000078E50E94C3018ACF7FE10E94FF027FE16F
:100210000E94C30183CF7CE50E94FF027CE50E941F
:10022000C3017CCF7BE50E94FF027BE50E94C301F6
:1002300075CF78E10E94FF0278E10E94C3016ECF82
:100240007AE50E94FF027AE50E94C30167CF7DE54F
:100250000E94FF027DE50E94C30160CF7BE10E9406
:10026000FF027BE10E94C30159CF7AE10E94FF02A5
:100270007AE10E94C30152CF79E10E94FF0279E145
:100280000E94C3014BCF7EE50E94FF027EE50E94E3
:10029000C30144CF7EE10E94FF027EE10E94C301C0
:1002A0003DCF7DE10E94FF027DE10E94C30136CF78
:1002B0007FE50E94FF027FE50E94C3012FCF79E511
:1002C0000E94FF0279E50E94C30128CF27CFEF9358
:1002D000FF937F939F939FB79F93E0E0F8E0708137
:1002E00091E0199A791721F471E37093B20003C079
:1002F0007FE07093B2009F919FBF9F917F91FF918C
:10030000EF9118950F930FB70F932F932C9A18977F
:1003100008E05E910E941D030A95D9F7D89708E07E
:100320005E910E941D030A95D9F708E02B980117EA
:1003300009F42B9A2D9A2D980A95C1F72C982C9A8E
:100340002C982FE50000000000002A95D9F748E41A
:10035000A40F10F441E0B40F1A9571F417E003B044
:1003600000FA1EF4A0E0B1E002C0A0E0B2E040E874
:10037000A40F10F441E0B40F40E046BD2F910F915F
:100380000FBF0F911895E0E0F5E070833091790090
:1003900098EC8BE4391718F4831720F545C0E0E09A
:1003A000F7E090E0908380E1780FE0E0F3E0708385
:1003B0000E94FF027081E0E0F4E07083705203B0AD
:1003C00000FA1EF4C0E0D1E002C0C0E0D2E0C70FE6
:1003D00010F481E0D80F888194E0891711F40E940D
:1003E0000E0322C0E0E0F7E090E090837051E0E07F
:1003F000F3E070830E94FF027081E0E0F4E070831C
:1004000080E2780F03B000FA06F7C0E0D1E002C046
:10041000C0E0D2E0C70F10F481E0D80F888194E0EB
:10042000891711F40E940E0303B002FA0EF45EC0A5
:1004300003B000FA3EF40E94C702E0E0F7E091E06A
:10044000908354C042984398E0E0F3E07081E0E08C
:10045000F1E0E70F429A439A10F471E0F70F7081D0
:100460008FE1871709F023C021E020937000E0E0BE
:10047000F8E021E020830E94C702E3E0F6E08081FB
:1004800090E0891799F5E0E0F7E091E09083E3E0F0
:10049000F6E091E09083E2E0F6E0808191E0890F60
:1004A0008083E1E0F6E09081891709F11FC021E027
:1004B00020937000E0E0F8E022E020830E94D9025F
:1004C000E6E0F6E0808190E0891781F4E6E0F6E06E
:1004D00091E09083E5E0F6E0808191E0890F8083F0
:1004E000E4E0F6E09081891751F100C00895E0E55D
:1004F000F7E0C0E0D2E090E8459149939A95E1F7A2
:1005000003B000FADEF4E0EDF6E0C0E0D2E090E8FF
:10051000459149939A95E1F7E0E5F6E0C0E0D1E036
:1005200090E8459149939A95E1F7E2E0F6E090E092
:100530009083E5E0F6E090E09083F0CDE1CFE0ED50
:10054000F7E0C0E0D2E090E8459149939A95E1F751
:1005500003B000FADEF4E0EDF6E0C0E0D2E090E8AF
:10056000459149939A95E1F7E0E5F6E0C0E0D1E0E6
:1005700090E8459149939A95E1F7E5E0F6E090E03F
:100580009083E2E0F6E090E09083C8CDE1CFE0E038
:10059000F4E0708198E0791B7F930E94F0027F91D4
:1005A000790F7F930E94F0027F91790F0E94F002F1
:1005B0000895E0E0F4E0708198E0791B7F930E9459
:1005C000E7027F91790F790F0E94E7020895C0E05A
:1005D000D2E0C70F10F471E0D70F71E1788308956E
:1005E00003B000FA1EF4C0E0D1E002C0C0E0D2E0E7
:1005F000C70F10F471E0D70F7FE17883089503B03F
:1006000000FA1EF4C0E0D1E002C0C0E0D2E0C70FA3
:1006100010F471E0D70F74E07883089503B000FA06
:100620001EF4C0E0D1E002C0C0E0D2E0C70F10F479
:1006300071E0D70F70E07883089565E050FB2B9848
:100640000EF42B9A2D9A2D9856956A95B9F7089520
:10065000000000000000000000000000000000009A
:10066000000000000000000000000000000000008A
:10067000000000000000000000000000000000007A
:10068000000000000000000000000000000000006A
:10069000000000000000000000000000000000005A
:1006A000000000000000000000000000000000004A
:1006B000000000000000000000000000000000003A
:1006C000000000000000000000000000000000002A
:1006D000000000000000000000000000000000001A
:1006E000000000000000000000000000000000000A
:1006F00000000000000000000000000000000000FA
:1007000000000000000000000000000000000000E9
:1007100000000000000000000000000000000000D9
:1007200000000000000000000000000000000000C9
:1007300000000000000000000000000000000000B9
:1007400000000000000000000000000000000000A9
:10075000001E1F1F111F11000011101111041100A4
:100760000012101F11041100001E1F1111041F00A0
:1007700000121011110404000011101111040400E2
:10078000001E1F111F0404000000000000000000F4
:10079000001F1F0000111F000011100000111000A9
:1007A00000111F000011100000111000001F1000A8
:1007B00000111000001010000011100000101000B7
:1007C000001F100000101F000000000000000000CB
:1007D0001F1F1B1E0F111E1E1011151009111012C4
:1007E000101F15100911101E1011111E09111E18CD
:1007F000161111100911101412111110090A1012FA
:100800001E11111E0F041E11000000000000000048
:1008100000031E00000000000004011F1F1F1E0037
:10082000000401000004010000071F0000071F0072
:1008300000040100000401000004011F1F1F1E002E
:0808400000031E00000000008F
:00000001FF
